{
	"schemaVersion": "2.0.0",
	"contractName": "AdjustZeroExApiQuote",
	"compilerOutput": {
		"abi": [
			{
				"constant": true,
				"inputs": [
					{
						"internalType": "address",
						"name": "target",
						"type": "address"
					},
					{
						"internalType": "bytes",
						"name": "callData",
						"type": "bytes"
					},
					{
						"internalType": "uint256",
						"name": "fillAmount",
						"type": "uint256"
					}
				],
				"name": "adjustFillAmount",
				"outputs": [
					{
						"internalType": "bytes",
						"name": "",
						"type": "bytes"
					}
				],
				"payable": false,
				"stateMutability": "pure",
				"type": "function"
			}
		],
		"devdoc": {
			"methods": {}
		},
		"evm": {
			"bytecode": {
				"linkReferences": {},
				"object": "0x608060405234801561001057600080fd5b5061060a806100206000396000f3fe608060405234801561001057600080fd5b506004361061002b5760003560e01c80638fd848a314610030575b600080fd5b6100f56004803603606081101561004657600080fd5b73ffffffffffffffffffffffffffffffffffffffff823516919081019060408101602082013564010000000081111561007e57600080fd5b82018360208201111561009057600080fd5b803590602001918460018302840111640100000000831117156100b257600080fd5b91908080601f016020809104026020016040519081016040528093929190818152602001838380828437600092019190915250929550509135925061016a915050565b6040805160208082528351818301528351919283929083019185019080838360005b8381101561012f578181015183820152602001610117565b50505050905090810190601f16801561015c5780820380516001836020036101000a031916815260200191505b509250505060405180910390f35b6060600061017e848263ffffffff61042116565b905073ffffffffffffffffffffffffffffffffffffffff8516736958f5e95332d93d21af0d7b9ca85b8212fee0a5141561029d577fffffffff0000000000000000000000000000000000000000000000000000000081167f939ce6ba00000000000000000000000000000000000000000000000000000000148061024357507fffffffff0000000000000000000000000000000000000000000000000000000081167f9e83231500000000000000000000000000000000000000000000000000000000145b610298576040517f08c379a000000000000000000000000000000000000000000000000000000000815260040180806020018281038252602f815260200180610551602f913960400191505060405180910390fd5b610406565b73ffffffffffffffffffffffffffffffffffffffff85167361935cbdd02287b511119ddb11aeb42f1593b7ef14156103b5577fffffffff0000000000000000000000000000000000000000000000000000000081167fa6c3bf3300000000000000000000000000000000000000000000000000000000148061036057507fffffffff0000000000000000000000000000000000000000000000000000000081167f8bc8efb300000000000000000000000000000000000000000000000000000000145b610298576040517f08c379a000000000000000000000000000000000000000000000000000000000815260040180806020018281038252602e8152602001806105a8602e913960400191505060405180910390fd5b6040517f08c379a00000000000000000000000000000000000000000000000000000000081526004018080602001828103825260288152602001806105806028913960400191505060405180910390fd5b6104188460248563ffffffff61047216565b50919392505050565b60008160040183511015610447576104476104426003855185600401610482565b610521565b5001602001517fffffffff000000000000000000000000000000000000000000000000000000001690565b61047d838383610529565b505050565b6060632800659560e01b848484604051602401808460078111156104a257fe5b60ff1681526020018381526020018281526020019350505050604051602081830303815290604052907bffffffffffffffffffffffffffffffffffffffffffffffffffffffff19166020820180517bffffffffffffffffffffffffffffffffffffffffffffffffffffffff838183161783525050505090509392505050565b805160208201fd5b8160200183511015610548576105486104426005855185602001610482565b91016020015256fe41646a7573745a65726f457841706951756f74652f494e56414c49445f464f525741524445525f53454c4543544f5241646a7573745a65726f457841706951756f74652f494e56414c49445f43414c4c5f54415247455441646a7573745a65726f457841706951756f74652f494e56414c49445f45584348414e47455f53454c4543544f52a265627a7a723158201a0120c2fef8cd0f8141a93bb50d6769dda66ada6d6c91b6a8ce116d76de346864736f6c63430005110032",
				"opcodes": "PUSH1 0x80 PUSH1 0x40 MSTORE CALLVALUE DUP1 ISZERO PUSH2 0x10 JUMPI PUSH1 0x0 DUP1 REVERT JUMPDEST POP PUSH2 0x60A DUP1 PUSH2 0x20 PUSH1 0x0 CODECOPY PUSH1 0x0 RETURN INVALID PUSH1 0x80 PUSH1 0x40 MSTORE CALLVALUE DUP1 ISZERO PUSH2 0x10 JUMPI PUSH1 0x0 DUP1 REVERT JUMPDEST POP PUSH1 0x4 CALLDATASIZE LT PUSH2 0x2B JUMPI PUSH1 0x0 CALLDATALOAD PUSH1 0xE0 SHR DUP1 PUSH4 0x8FD848A3 EQ PUSH2 0x30 JUMPI JUMPDEST PUSH1 0x0 DUP1 REVERT JUMPDEST PUSH2 0xF5 PUSH1 0x4 DUP1 CALLDATASIZE SUB PUSH1 0x60 DUP2 LT ISZERO PUSH2 0x46 JUMPI PUSH1 0x0 DUP1 REVERT JUMPDEST PUSH20 0xFFFFFFFFFFFFFFFFFFFFFFFFFFFFFFFFFFFFFFFF DUP3 CALLDATALOAD AND SWAP2 SWAP1 DUP2 ADD SWAP1 PUSH1 0x40 DUP2 ADD PUSH1 0x20 DUP3 ADD CALLDATALOAD PUSH5 0x100000000 DUP2 GT ISZERO PUSH2 0x7E JUMPI PUSH1 0x0 DUP1 REVERT JUMPDEST DUP3 ADD DUP4 PUSH1 0x20 DUP3 ADD GT ISZERO PUSH2 0x90 JUMPI PUSH1 0x0 DUP1 REVERT JUMPDEST DUP1 CALLDATALOAD SWAP1 PUSH1 0x20 ADD SWAP2 DUP5 PUSH1 0x1 DUP4 MUL DUP5 ADD GT PUSH5 0x100000000 DUP4 GT OR ISZERO PUSH2 0xB2 JUMPI PUSH1 0x0 DUP1 REVERT JUMPDEST SWAP2 SWAP1 DUP1 DUP1 PUSH1 0x1F ADD PUSH1 0x20 DUP1 SWAP2 DIV MUL PUSH1 0x20 ADD PUSH1 0x40 MLOAD SWAP1 DUP2 ADD PUSH1 0x40 MSTORE DUP1 SWAP4 SWAP3 SWAP2 SWAP1 DUP2 DUP2 MSTORE PUSH1 0x20 ADD DUP4 DUP4 DUP1 DUP3 DUP5 CALLDATACOPY PUSH1 0x0 SWAP3 ADD SWAP2 SWAP1 SWAP2 MSTORE POP SWAP3 SWAP6 POP POP SWAP2 CALLDATALOAD SWAP3 POP PUSH2 0x16A SWAP2 POP POP JUMP JUMPDEST PUSH1 0x40 DUP1 MLOAD PUSH1 0x20 DUP1 DUP3 MSTORE DUP4 MLOAD DUP2 DUP4 ADD MSTORE DUP4 MLOAD SWAP2 SWAP3 DUP4 SWAP3 SWAP1 DUP4 ADD SWAP2 DUP6 ADD SWAP1 DUP1 DUP4 DUP4 PUSH1 0x0 JUMPDEST DUP4 DUP2 LT ISZERO PUSH2 0x12F JUMPI DUP2 DUP2 ADD MLOAD DUP4 DUP3 ADD MSTORE PUSH1 0x20 ADD PUSH2 0x117 JUMP JUMPDEST POP POP POP POP SWAP1 POP SWAP1 DUP2 ADD SWAP1 PUSH1 0x1F AND DUP1 ISZERO PUSH2 0x15C JUMPI DUP1 DUP3 SUB DUP1 MLOAD PUSH1 0x1 DUP4 PUSH1 0x20 SUB PUSH2 0x100 EXP SUB NOT AND DUP2 MSTORE PUSH1 0x20 ADD SWAP2 POP JUMPDEST POP SWAP3 POP POP POP PUSH1 0x40 MLOAD DUP1 SWAP2 SUB SWAP1 RETURN JUMPDEST PUSH1 0x60 PUSH1 0x0 PUSH2 0x17E DUP5 DUP3 PUSH4 0xFFFFFFFF PUSH2 0x421 AND JUMP JUMPDEST SWAP1 POP PUSH20 0xFFFFFFFFFFFFFFFFFFFFFFFFFFFFFFFFFFFFFFFF DUP6 AND PUSH20 0x6958F5E95332D93D21AF0D7B9CA85B8212FEE0A5 EQ ISZERO PUSH2 0x29D JUMPI PUSH32 0xFFFFFFFF00000000000000000000000000000000000000000000000000000000 DUP2 AND PUSH32 0x939CE6BA00000000000000000000000000000000000000000000000000000000 EQ DUP1 PUSH2 0x243 JUMPI POP PUSH32 0xFFFFFFFF00000000000000000000000000000000000000000000000000000000 DUP2 AND PUSH32 0x9E83231500000000000000000000000000000000000000000000000000000000 EQ JUMPDEST PUSH2 0x298 JUMPI PUSH1 0x40 MLOAD PUSH32 0x8C379A000000000000000000000000000000000000000000000000000000000 DUP2 MSTORE PUSH1 0x4 ADD DUP1 DUP1 PUSH1 0x20 ADD DUP3 DUP2 SUB DUP3 MSTORE PUSH1 0x2F DUP2 MSTORE PUSH1 0x20 ADD DUP1 PUSH2 0x551 PUSH1 0x2F SWAP2 CODECOPY PUSH1 0x40 ADD SWAP2 POP POP PUSH1 0x40 MLOAD DUP1 SWAP2 SUB SWAP1 REVERT JUMPDEST PUSH2 0x406 JUMP JUMPDEST PUSH20 0xFFFFFFFFFFFFFFFFFFFFFFFFFFFFFFFFFFFFFFFF DUP6 AND PUSH20 0x61935CBDD02287B511119DDB11AEB42F1593B7EF EQ ISZERO PUSH2 0x3B5 JUMPI PUSH32 0xFFFFFFFF00000000000000000000000000000000000000000000000000000000 DUP2 AND PUSH32 0xA6C3BF3300000000000000000000000000000000000000000000000000000000 EQ DUP1 PUSH2 0x360 JUMPI POP PUSH32 0xFFFFFFFF00000000000000000000000000000000000000000000000000000000 DUP2 AND PUSH32 0x8BC8EFB300000000000000000000000000000000000000000000000000000000 EQ JUMPDEST PUSH2 0x298 JUMPI PUSH1 0x40 MLOAD PUSH32 0x8C379A000000000000000000000000000000000000000000000000000000000 DUP2 MSTORE PUSH1 0x4 ADD DUP1 DUP1 PUSH1 0x20 ADD DUP3 DUP2 SUB DUP3 MSTORE PUSH1 0x2E DUP2 MSTORE PUSH1 0x20 ADD DUP1 PUSH2 0x5A8 PUSH1 0x2E SWAP2 CODECOPY PUSH1 0x40 ADD SWAP2 POP POP PUSH1 0x40 MLOAD DUP1 SWAP2 SUB SWAP1 REVERT JUMPDEST PUSH1 0x40 MLOAD PUSH32 0x8C379A000000000000000000000000000000000000000000000000000000000 DUP2 MSTORE PUSH1 0x4 ADD DUP1 DUP1 PUSH1 0x20 ADD DUP3 DUP2 SUB DUP3 MSTORE PUSH1 0x28 DUP2 MSTORE PUSH1 0x20 ADD DUP1 PUSH2 0x580 PUSH1 0x28 SWAP2 CODECOPY PUSH1 0x40 ADD SWAP2 POP POP PUSH1 0x40 MLOAD DUP1 SWAP2 SUB SWAP1 REVERT JUMPDEST PUSH2 0x418 DUP5 PUSH1 0x24 DUP6 PUSH4 0xFFFFFFFF PUSH2 0x472 AND JUMP JUMPDEST POP SWAP2 SWAP4 SWAP3 POP POP POP JUMP JUMPDEST PUSH1 0x0 DUP2 PUSH1 0x4 ADD DUP4 MLOAD LT ISZERO PUSH2 0x447 JUMPI PUSH2 0x447 PUSH2 0x442 PUSH1 0x3 DUP6 MLOAD DUP6 PUSH1 0x4 ADD PUSH2 0x482 JUMP JUMPDEST PUSH2 0x521 JUMP JUMPDEST POP ADD PUSH1 0x20 ADD MLOAD PUSH32 0xFFFFFFFF00000000000000000000000000000000000000000000000000000000 AND SWAP1 JUMP JUMPDEST PUSH2 0x47D DUP4 DUP4 DUP4 PUSH2 0x529 JUMP JUMPDEST POP POP POP JUMP JUMPDEST PUSH1 0x60 PUSH4 0x28006595 PUSH1 0xE0 SHL DUP5 DUP5 DUP5 PUSH1 0x40 MLOAD PUSH1 0x24 ADD DUP1 DUP5 PUSH1 0x7 DUP2 GT ISZERO PUSH2 0x4A2 JUMPI INVALID JUMPDEST PUSH1 0xFF AND DUP2 MSTORE PUSH1 0x20 ADD DUP4 DUP2 MSTORE PUSH1 0x20 ADD DUP3 DUP2 MSTORE PUSH1 0x20 ADD SWAP4 POP POP POP POP PUSH1 0x40 MLOAD PUSH1 0x20 DUP2 DUP4 SUB SUB DUP2 MSTORE SWAP1 PUSH1 0x40 MSTORE SWAP1 PUSH28 0xFFFFFFFFFFFFFFFFFFFFFFFFFFFFFFFFFFFFFFFFFFFFFFFFFFFFFFFF NOT AND PUSH1 0x20 DUP3 ADD DUP1 MLOAD PUSH28 0xFFFFFFFFFFFFFFFFFFFFFFFFFFFFFFFFFFFFFFFFFFFFFFFFFFFFFFFF DUP4 DUP2 DUP4 AND OR DUP4 MSTORE POP POP POP POP SWAP1 POP SWAP4 SWAP3 POP POP POP JUMP JUMPDEST DUP1 MLOAD PUSH1 0x20 DUP3 ADD REVERT JUMPDEST DUP2 PUSH1 0x20 ADD DUP4 MLOAD LT ISZERO PUSH2 0x548 JUMPI PUSH2 0x548 PUSH2 0x442 PUSH1 0x5 DUP6 MLOAD DUP6 PUSH1 0x20 ADD PUSH2 0x482 JUMP JUMPDEST SWAP2 ADD PUSH1 0x20 ADD MSTORE JUMP INVALID COINBASE PUSH5 0x6A7573745A PUSH6 0x726F45784170 PUSH10 0x51756F74652F494E5641 0x4C 0x49 DIFFICULTY 0x5F CHAINID 0x4F MSTORE JUMPI COINBASE MSTORE DIFFICULTY GASLIMIT MSTORE 0x5F MSTORE8 GASLIMIT 0x4C GASLIMIT NUMBER SLOAD 0x4F MSTORE COINBASE PUSH5 0x6A7573745A PUSH6 0x726F45784170 PUSH10 0x51756F74652F494E5641 0x4C 0x49 DIFFICULTY 0x5F NUMBER COINBASE 0x4C 0x4C 0x5F SLOAD COINBASE MSTORE SELFBALANCE GASLIMIT SLOAD COINBASE PUSH5 0x6A7573745A PUSH6 0x726F45784170 PUSH10 0x51756F74652F494E5641 0x4C 0x49 DIFFICULTY 0x5F GASLIMIT PC NUMBER 0x48 COINBASE 0x4E SELFBALANCE GASLIMIT 0x5F MSTORE8 GASLIMIT 0x4C GASLIMIT NUMBER SLOAD 0x4F MSTORE LOG2 PUSH6 0x627A7A723158 KECCAK256 BYTE ADD KECCAK256 0xC2 INVALID 0xF8 0xCD 0xF DUP2 COINBASE 0xA9 EXTCODESIZE 0xB5 0xD PUSH8 0x69DDA66ADA6D6C91 0xB6 0xA8 0xCE GT PUSH14 0x76DE346864736F6C634300051100 ORIGIN "
			}
		}
	},
	"sourceTreeHashHex": "0x1167fad9fa4e74b6cc16df5d11bca2d08ff1bd0dc450ceba9a33ae03c34927c5",
	"compiler": {
		"name": "solc",
		"version": "soljson-v0.5.17+commit.d19bba13.js",
		"settings": {
			"optimizer": {
				"enabled": true,
				"runs": 1000000,
				"details": {
					"yul": true,
					"deduplicate": true,
					"cse": true,
					"constantOptimizer": true
				}
			},
			"outputSelection": {
				"*": {
					"*": [
						"abi",
						"devdoc",
						"evm.bytecode.object",
						"evm.bytecode.sourceMap",
						"evm.deployedBytecode.object",
						"evm.deployedBytecode.sourceMap"
					]
				}
			},
			"evmVersion": "istanbul",
			"remappings": [
				"@0x/contracts-utils=/home/cluracan/code/adjust-0x-api-quote/node_modules/@0x/contracts-utils",
				"@0x/contracts-exchange-libs=/home/cluracan/code/adjust-0x-api-quote/node_modules/@0x/contracts-exchange-libs"
			]
		}
	},
	"chains": {}
}