{
	"schemaVersion": "2.0.0",
	"contractName": "TestAdjustZeroExApiQuoteReceiver",
	"compilerOutput": {
		"abi": [
			{
				"anonymous": false,
				"inputs": [
					{
						"components": [
							{
								"internalType": "address",
								"name": "makerAddress",
								"type": "address"
							},
							{
								"internalType": "address",
								"name": "takerAddress",
								"type": "address"
							},
							{
								"internalType": "address",
								"name": "feeRecipientAddress",
								"type": "address"
							},
							{
								"internalType": "address",
								"name": "senderAddress",
								"type": "address"
							},
							{
								"internalType": "uint256",
								"name": "makerAssetAmount",
								"type": "uint256"
							},
							{
								"internalType": "uint256",
								"name": "takerAssetAmount",
								"type": "uint256"
							},
							{
								"internalType": "uint256",
								"name": "makerFee",
								"type": "uint256"
							},
							{
								"internalType": "uint256",
								"name": "takerFee",
								"type": "uint256"
							},
							{
								"internalType": "uint256",
								"name": "expirationTimeSeconds",
								"type": "uint256"
							},
							{
								"internalType": "uint256",
								"name": "salt",
								"type": "uint256"
							},
							{
								"internalType": "bytes",
								"name": "makerAssetData",
								"type": "bytes"
							},
							{
								"internalType": "bytes",
								"name": "takerAssetData",
								"type": "bytes"
							},
							{
								"internalType": "bytes",
								"name": "makerFeeAssetData",
								"type": "bytes"
							},
							{
								"internalType": "bytes",
								"name": "takerFeeAssetData",
								"type": "bytes"
							}
						],
						"indexed": false,
						"internalType": "struct LibOrder.Order[]",
						"name": "orders",
						"type": "tuple[]"
					},
					{
						"indexed": false,
						"internalType": "uint256",
						"name": "makerAssetFillAmount",
						"type": "uint256"
					},
					{
						"indexed": false,
						"internalType": "bytes[]",
						"name": "signatures",
						"type": "bytes[]"
					}
				],
				"name": "MarketBuyOrdersFillOrKill",
				"type": "event"
			},
			{
				"anonymous": false,
				"inputs": [
					{
						"components": [
							{
								"internalType": "address",
								"name": "makerAddress",
								"type": "address"
							},
							{
								"internalType": "address",
								"name": "takerAddress",
								"type": "address"
							},
							{
								"internalType": "address",
								"name": "feeRecipientAddress",
								"type": "address"
							},
							{
								"internalType": "address",
								"name": "senderAddress",
								"type": "address"
							},
							{
								"internalType": "uint256",
								"name": "makerAssetAmount",
								"type": "uint256"
							},
							{
								"internalType": "uint256",
								"name": "takerAssetAmount",
								"type": "uint256"
							},
							{
								"internalType": "uint256",
								"name": "makerFee",
								"type": "uint256"
							},
							{
								"internalType": "uint256",
								"name": "takerFee",
								"type": "uint256"
							},
							{
								"internalType": "uint256",
								"name": "expirationTimeSeconds",
								"type": "uint256"
							},
							{
								"internalType": "uint256",
								"name": "salt",
								"type": "uint256"
							},
							{
								"internalType": "bytes",
								"name": "makerAssetData",
								"type": "bytes"
							},
							{
								"internalType": "bytes",
								"name": "takerAssetData",
								"type": "bytes"
							},
							{
								"internalType": "bytes",
								"name": "makerFeeAssetData",
								"type": "bytes"
							},
							{
								"internalType": "bytes",
								"name": "takerFeeAssetData",
								"type": "bytes"
							}
						],
						"indexed": false,
						"internalType": "struct LibOrder.Order[]",
						"name": "orders",
						"type": "tuple[]"
					},
					{
						"indexed": false,
						"internalType": "uint256",
						"name": "makerAssetBuyAmount",
						"type": "uint256"
					},
					{
						"indexed": false,
						"internalType": "bytes[]",
						"name": "signatures",
						"type": "bytes[]"
					},
					{
						"indexed": false,
						"internalType": "uint256[]",
						"name": "ethFeeAmounts",
						"type": "uint256[]"
					},
					{
						"indexed": false,
						"internalType": "address payable[]",
						"name": "feeRecipients",
						"type": "address[]"
					}
				],
				"name": "MarketBuyOrdersWithEth",
				"type": "event"
			},
			{
				"anonymous": false,
				"inputs": [
					{
						"components": [
							{
								"internalType": "address",
								"name": "makerAddress",
								"type": "address"
							},
							{
								"internalType": "address",
								"name": "takerAddress",
								"type": "address"
							},
							{
								"internalType": "address",
								"name": "feeRecipientAddress",
								"type": "address"
							},
							{
								"internalType": "address",
								"name": "senderAddress",
								"type": "address"
							},
							{
								"internalType": "uint256",
								"name": "makerAssetAmount",
								"type": "uint256"
							},
							{
								"internalType": "uint256",
								"name": "takerAssetAmount",
								"type": "uint256"
							},
							{
								"internalType": "uint256",
								"name": "makerFee",
								"type": "uint256"
							},
							{
								"internalType": "uint256",
								"name": "takerFee",
								"type": "uint256"
							},
							{
								"internalType": "uint256",
								"name": "expirationTimeSeconds",
								"type": "uint256"
							},
							{
								"internalType": "uint256",
								"name": "salt",
								"type": "uint256"
							},
							{
								"internalType": "bytes",
								"name": "makerAssetData",
								"type": "bytes"
							},
							{
								"internalType": "bytes",
								"name": "takerAssetData",
								"type": "bytes"
							},
							{
								"internalType": "bytes",
								"name": "makerFeeAssetData",
								"type": "bytes"
							},
							{
								"internalType": "bytes",
								"name": "takerFeeAssetData",
								"type": "bytes"
							}
						],
						"indexed": false,
						"internalType": "struct LibOrder.Order[]",
						"name": "orders",
						"type": "tuple[]"
					},
					{
						"indexed": false,
						"internalType": "uint256",
						"name": "ethSellAmount",
						"type": "uint256"
					},
					{
						"indexed": false,
						"internalType": "bytes[]",
						"name": "signatures",
						"type": "bytes[]"
					},
					{
						"indexed": false,
						"internalType": "uint256[]",
						"name": "ethFeeAmounts",
						"type": "uint256[]"
					},
					{
						"indexed": false,
						"internalType": "address payable[]",
						"name": "feeRecipients",
						"type": "address[]"
					}
				],
				"name": "MarketSellAmountWithEth",
				"type": "event"
			},
			{
				"anonymous": false,
				"inputs": [
					{
						"components": [
							{
								"internalType": "address",
								"name": "makerAddress",
								"type": "address"
							},
							{
								"internalType": "address",
								"name": "takerAddress",
								"type": "address"
							},
							{
								"internalType": "address",
								"name": "feeRecipientAddress",
								"type": "address"
							},
							{
								"internalType": "address",
								"name": "senderAddress",
								"type": "address"
							},
							{
								"internalType": "uint256",
								"name": "makerAssetAmount",
								"type": "uint256"
							},
							{
								"internalType": "uint256",
								"name": "takerAssetAmount",
								"type": "uint256"
							},
							{
								"internalType": "uint256",
								"name": "makerFee",
								"type": "uint256"
							},
							{
								"internalType": "uint256",
								"name": "takerFee",
								"type": "uint256"
							},
							{
								"internalType": "uint256",
								"name": "expirationTimeSeconds",
								"type": "uint256"
							},
							{
								"internalType": "uint256",
								"name": "salt",
								"type": "uint256"
							},
							{
								"internalType": "bytes",
								"name": "makerAssetData",
								"type": "bytes"
							},
							{
								"internalType": "bytes",
								"name": "takerAssetData",
								"type": "bytes"
							},
							{
								"internalType": "bytes",
								"name": "makerFeeAssetData",
								"type": "bytes"
							},
							{
								"internalType": "bytes",
								"name": "takerFeeAssetData",
								"type": "bytes"
							}
						],
						"indexed": false,
						"internalType": "struct LibOrder.Order[]",
						"name": "orders",
						"type": "tuple[]"
					},
					{
						"indexed": false,
						"internalType": "uint256",
						"name": "takerAssetFillAmount",
						"type": "uint256"
					},
					{
						"indexed": false,
						"internalType": "bytes[]",
						"name": "signatures",
						"type": "bytes[]"
					}
				],
				"name": "MarketSellOrdersFillOrKill",
				"type": "event"
			},
			{
				"constant": false,
				"inputs": [
					{
						"components": [
							{
								"internalType": "address",
								"name": "makerAddress",
								"type": "address"
							},
							{
								"internalType": "address",
								"name": "takerAddress",
								"type": "address"
							},
							{
								"internalType": "address",
								"name": "feeRecipientAddress",
								"type": "address"
							},
							{
								"internalType": "address",
								"name": "senderAddress",
								"type": "address"
							},
							{
								"internalType": "uint256",
								"name": "makerAssetAmount",
								"type": "uint256"
							},
							{
								"internalType": "uint256",
								"name": "takerAssetAmount",
								"type": "uint256"
							},
							{
								"internalType": "uint256",
								"name": "makerFee",
								"type": "uint256"
							},
							{
								"internalType": "uint256",
								"name": "takerFee",
								"type": "uint256"
							},
							{
								"internalType": "uint256",
								"name": "expirationTimeSeconds",
								"type": "uint256"
							},
							{
								"internalType": "uint256",
								"name": "salt",
								"type": "uint256"
							},
							{
								"internalType": "bytes",
								"name": "makerAssetData",
								"type": "bytes"
							},
							{
								"internalType": "bytes",
								"name": "takerAssetData",
								"type": "bytes"
							},
							{
								"internalType": "bytes",
								"name": "makerFeeAssetData",
								"type": "bytes"
							},
							{
								"internalType": "bytes",
								"name": "takerFeeAssetData",
								"type": "bytes"
							}
						],
						"internalType": "struct LibOrder.Order[]",
						"name": "orders",
						"type": "tuple[]"
					},
					{
						"internalType": "uint256",
						"name": "makerAssetFillAmount",
						"type": "uint256"
					},
					{
						"internalType": "bytes[]",
						"name": "signatures",
						"type": "bytes[]"
					}
				],
				"name": "marketBuyOrdersFillOrKill",
				"outputs": [
					{
						"components": [
							{
								"internalType": "uint256",
								"name": "makerAssetFilledAmount",
								"type": "uint256"
							},
							{
								"internalType": "uint256",
								"name": "takerAssetFilledAmount",
								"type": "uint256"
							},
							{
								"internalType": "uint256",
								"name": "makerFeePaid",
								"type": "uint256"
							},
							{
								"internalType": "uint256",
								"name": "takerFeePaid",
								"type": "uint256"
							},
							{
								"internalType": "uint256",
								"name": "protocolFeePaid",
								"type": "uint256"
							}
						],
						"internalType": "struct LibFillResults.FillResults",
						"name": "",
						"type": "tuple"
					}
				],
				"payable": true,
				"stateMutability": "payable",
				"type": "function"
			},
			{
				"constant": false,
				"inputs": [
					{
						"components": [
							{
								"internalType": "address",
								"name": "makerAddress",
								"type": "address"
							},
							{
								"internalType": "address",
								"name": "takerAddress",
								"type": "address"
							},
							{
								"internalType": "address",
								"name": "feeRecipientAddress",
								"type": "address"
							},
							{
								"internalType": "address",
								"name": "senderAddress",
								"type": "address"
							},
							{
								"internalType": "uint256",
								"name": "makerAssetAmount",
								"type": "uint256"
							},
							{
								"internalType": "uint256",
								"name": "takerAssetAmount",
								"type": "uint256"
							},
							{
								"internalType": "uint256",
								"name": "makerFee",
								"type": "uint256"
							},
							{
								"internalType": "uint256",
								"name": "takerFee",
								"type": "uint256"
							},
							{
								"internalType": "uint256",
								"name": "expirationTimeSeconds",
								"type": "uint256"
							},
							{
								"internalType": "uint256",
								"name": "salt",
								"type": "uint256"
							},
							{
								"internalType": "bytes",
								"name": "makerAssetData",
								"type": "bytes"
							},
							{
								"internalType": "bytes",
								"name": "takerAssetData",
								"type": "bytes"
							},
							{
								"internalType": "bytes",
								"name": "makerFeeAssetData",
								"type": "bytes"
							},
							{
								"internalType": "bytes",
								"name": "takerFeeAssetData",
								"type": "bytes"
							}
						],
						"internalType": "struct LibOrder.Order[]",
						"name": "orders",
						"type": "tuple[]"
					},
					{
						"internalType": "uint256",
						"name": "makerAssetBuyAmount",
						"type": "uint256"
					},
					{
						"internalType": "bytes[]",
						"name": "signatures",
						"type": "bytes[]"
					},
					{
						"internalType": "uint256[]",
						"name": "ethFeeAmounts",
						"type": "uint256[]"
					},
					{
						"internalType": "address payable[]",
						"name": "feeRecipients",
						"type": "address[]"
					}
				],
				"name": "marketBuyOrdersWithEth",
				"outputs": [
					{
						"internalType": "uint256",
						"name": "",
						"type": "uint256"
					},
					{
						"internalType": "uint256",
						"name": "",
						"type": "uint256"
					}
				],
				"payable": true,
				"stateMutability": "payable",
				"type": "function"
			},
			{
				"constant": false,
				"inputs": [
					{
						"components": [
							{
								"internalType": "address",
								"name": "makerAddress",
								"type": "address"
							},
							{
								"internalType": "address",
								"name": "takerAddress",
								"type": "address"
							},
							{
								"internalType": "address",
								"name": "feeRecipientAddress",
								"type": "address"
							},
							{
								"internalType": "address",
								"name": "senderAddress",
								"type": "address"
							},
							{
								"internalType": "uint256",
								"name": "makerAssetAmount",
								"type": "uint256"
							},
							{
								"internalType": "uint256",
								"name": "takerAssetAmount",
								"type": "uint256"
							},
							{
								"internalType": "uint256",
								"name": "makerFee",
								"type": "uint256"
							},
							{
								"internalType": "uint256",
								"name": "takerFee",
								"type": "uint256"
							},
							{
								"internalType": "uint256",
								"name": "expirationTimeSeconds",
								"type": "uint256"
							},
							{
								"internalType": "uint256",
								"name": "salt",
								"type": "uint256"
							},
							{
								"internalType": "bytes",
								"name": "makerAssetData",
								"type": "bytes"
							},
							{
								"internalType": "bytes",
								"name": "takerAssetData",
								"type": "bytes"
							},
							{
								"internalType": "bytes",
								"name": "makerFeeAssetData",
								"type": "bytes"
							},
							{
								"internalType": "bytes",
								"name": "takerFeeAssetData",
								"type": "bytes"
							}
						],
						"internalType": "struct LibOrder.Order[]",
						"name": "orders",
						"type": "tuple[]"
					},
					{
						"internalType": "uint256",
						"name": "ethSellAmount",
						"type": "uint256"
					},
					{
						"internalType": "bytes[]",
						"name": "signatures",
						"type": "bytes[]"
					},
					{
						"internalType": "uint256[]",
						"name": "ethFeeAmounts",
						"type": "uint256[]"
					},
					{
						"internalType": "address payable[]",
						"name": "feeRecipients",
						"type": "address[]"
					}
				],
				"name": "marketSellAmountWithEth",
				"outputs": [
					{
						"internalType": "uint256",
						"name": "",
						"type": "uint256"
					},
					{
						"internalType": "uint256",
						"name": "",
						"type": "uint256"
					}
				],
				"payable": true,
				"stateMutability": "payable",
				"type": "function"
			},
			{
				"constant": false,
				"inputs": [
					{
						"components": [
							{
								"internalType": "address",
								"name": "makerAddress",
								"type": "address"
							},
							{
								"internalType": "address",
								"name": "takerAddress",
								"type": "address"
							},
							{
								"internalType": "address",
								"name": "feeRecipientAddress",
								"type": "address"
							},
							{
								"internalType": "address",
								"name": "senderAddress",
								"type": "address"
							},
							{
								"internalType": "uint256",
								"name": "makerAssetAmount",
								"type": "uint256"
							},
							{
								"internalType": "uint256",
								"name": "takerAssetAmount",
								"type": "uint256"
							},
							{
								"internalType": "uint256",
								"name": "makerFee",
								"type": "uint256"
							},
							{
								"internalType": "uint256",
								"name": "takerFee",
								"type": "uint256"
							},
							{
								"internalType": "uint256",
								"name": "expirationTimeSeconds",
								"type": "uint256"
							},
							{
								"internalType": "uint256",
								"name": "salt",
								"type": "uint256"
							},
							{
								"internalType": "bytes",
								"name": "makerAssetData",
								"type": "bytes"
							},
							{
								"internalType": "bytes",
								"name": "takerAssetData",
								"type": "bytes"
							},
							{
								"internalType": "bytes",
								"name": "makerFeeAssetData",
								"type": "bytes"
							},
							{
								"internalType": "bytes",
								"name": "takerFeeAssetData",
								"type": "bytes"
							}
						],
						"internalType": "struct LibOrder.Order[]",
						"name": "orders",
						"type": "tuple[]"
					},
					{
						"internalType": "uint256",
						"name": "takerAssetFillAmount",
						"type": "uint256"
					},
					{
						"internalType": "bytes[]",
						"name": "signatures",
						"type": "bytes[]"
					}
				],
				"name": "marketSellOrdersFillOrKill",
				"outputs": [
					{
						"components": [
							{
								"internalType": "uint256",
								"name": "makerAssetFilledAmount",
								"type": "uint256"
							},
							{
								"internalType": "uint256",
								"name": "takerAssetFilledAmount",
								"type": "uint256"
							},
							{
								"internalType": "uint256",
								"name": "makerFeePaid",
								"type": "uint256"
							},
							{
								"internalType": "uint256",
								"name": "takerFeePaid",
								"type": "uint256"
							},
							{
								"internalType": "uint256",
								"name": "protocolFeePaid",
								"type": "uint256"
							}
						],
						"internalType": "struct LibFillResults.FillResults",
						"name": "",
						"type": "tuple"
					}
				],
				"payable": true,
				"stateMutability": "payable",
				"type": "function"
			}
		],
		"devdoc": {
			"methods": {}
		},
		"evm": {
			"bytecode": {
				"linkReferences": {},
				"object": "0x608060405234801561001057600080fd5b5061089b806100206000396000f3fe60806040526004361061003f5760003560e01c80638bc8efb314610044578063939ce6ba1461006d5780639e8323151461008e578063a6c3bf33146100a1575b600080fd5b610057610052366004610266565b6100b4565b604051610064919061076b565b60405180910390f35b61008061007b3660046102dd565b610104565b6040516100649291906107a5565b61008061009c3660046102dd565b61015c565b6100576100af366004610266565b61019e565b6100bc6101dd565b7f1f5648a9029845c4761cfcc20c17a2c7a315464d6e0f57f3fb108820f2ddc19586868686866040516100f395949392919061065e565b60405180910390a195945050505050565b6000807fa95dd736cfb842736454ca3f7fdb742278cefd9f879ed528e920927be71d59c38b8b8b8b8b8b8b8b8b60405161014699989796959493929190610697565b60405180910390a1995099975050505050505050565b6000807faf5574adf8130f111f97c1e4f8626f0b1c3522635819536c6d162fa7e5ec3c6a8b8b8b8b8b8b8b8b8b60405161014699989796959493929190610697565b6101a66101dd565b7fffcfcafc74a2e0b9eeecb2440e1ca5e16b51b1e5e57c00c947291426e694f4b086868686866040516100f395949392919061065e565b6040518060a0016040528060008152602001600081526020016000815260200160008152602001600081525090565b803561021781610833565b92915050565b60008083601f84011261022e578182fd5b50813567ffffffffffffffff811115610245578182fd5b602083019150836020808302850101111561025f57600080fd5b9250929050565b60008060008060006060868803121561027d578081fd5b853567ffffffffffffffff80821115610294578283fd5b6102a089838a0161021d565b90975095506020880135945060408801359150808211156102bf578283fd5b506102cc8882890161021d565b969995985093965092949392505050565b600080600080600080600080600060a08a8c0312156102fa578384fd5b893567ffffffffffffffff80821115610311578586fd5b61031d8d838e0161021d565b909b50995060208c0135985060408c013591508082111561033c578586fd5b6103488d838e0161021d565b909850965060608c0135915080821115610360578586fd5b61036c8d838e0161021d565b909650945060808c0135915080821115610384578384fd5b506103918c828d0161021d565b8194508093505050509295985092959850929598565b73ffffffffffffffffffffffffffffffffffffffff16815260200190565b73ffffffffffffffffffffffffffffffffffffffff169052565b60008284526020840180819550602085028101915083835b8681101561043157828403885261040e82876107d0565b610419868284610616565b60209a8b019a909650939093019250506001016103f7565b50919695505050505050565b8183526020808401936000918085028201810184845b87811015610609577fffffffffffffffffffffffffffffffffffffffffffffffffffffffffffffffe085840301895281357ffffffffffffffffffffffffffffffffffffffffffffffffffffffffffffffe418836030181126104b3578687fd5b6101c09088018581016104cf866104ca838561020c565b6103c5565b6104d981836107bc565b6104e5888801826103c5565b50506104f460408201826107bc565b61050160408701826103c5565b5061050f60608201826107bc565b61051c60608701826103c5565b506080810135608086015260a081013560a086015260c081013560c086015260e081013560e086015261010080820135818701525061012080820135818701525061014061056c818301836107d0565b848389015261057e8589018284610616565b925050506101609250610593838301836107d0565b878303858901526105a5838284610616565b94505050506101806105b9818301836107d0565b878503838901526105cb858284610616565b925050506101a092506105e0838301836107d0565b878303858901526105f2838284610616565b9d89019d9750505093860193505050600101610453565b5090979650505050505050565b600082845282826020860137806020848601015260207fffffffffffffffffffffffffffffffffffffffffffffffffffffffffffffffe0601f85011685010190509392505050565b60006060825261067260608301878961043d565b856020840152828103604084015261068b8185876103df565b98975050505050505050565b600060a082526106ab60a083018b8d61043d565b60208a8185015283820360408501526106c5828a8c6103df565b84810360608601528781527f07ffffffffffffffffffffffffffffffffffffffffffffffffffffffffffffff8811156106fc578384fd5b81880292508289838301379091018181018381529084900382016080850152908161072786826107b3565b9050869250835b868110156107595782840161074c83610747838861020c565b6103a7565b909450915060010161072e565b509d9c50505050505050505050505050565b600060a082019050825182526020830151602083015260408301516040830152606083015160608301526080830151608083015292915050565b918252602082015260400190565b90815260200190565b600082356107c981610833565b9392505050565b60008083357fffffffffffffffffffffffffffffffffffffffffffffffffffffffffffffffe1843603018112610804578283fd5b830160208101925035905067ffffffffffffffff81111561082457600080fd5b80360383131561025f57600080fd5b73ffffffffffffffffffffffffffffffffffffffff8116811461085557600080fd5b5056fea365627a7a72315820299bc19b5c1d705cb3eb83a4ba1ce279df2f3d88a84d4fb8b9fbebffc93c9a076c6578706572696d656e74616cf564736f6c63430005110040",
				"opcodes": "PUSH1 0x80 PUSH1 0x40 MSTORE CALLVALUE DUP1 ISZERO PUSH2 0x10 JUMPI PUSH1 0x0 DUP1 REVERT JUMPDEST POP PUSH2 0x89B DUP1 PUSH2 0x20 PUSH1 0x0 CODECOPY PUSH1 0x0 RETURN INVALID PUSH1 0x80 PUSH1 0x40 MSTORE PUSH1 0x4 CALLDATASIZE LT PUSH2 0x3F JUMPI PUSH1 0x0 CALLDATALOAD PUSH1 0xE0 SHR DUP1 PUSH4 0x8BC8EFB3 EQ PUSH2 0x44 JUMPI DUP1 PUSH4 0x939CE6BA EQ PUSH2 0x6D JUMPI DUP1 PUSH4 0x9E832315 EQ PUSH2 0x8E JUMPI DUP1 PUSH4 0xA6C3BF33 EQ PUSH2 0xA1 JUMPI JUMPDEST PUSH1 0x0 DUP1 REVERT JUMPDEST PUSH2 0x57 PUSH2 0x52 CALLDATASIZE PUSH1 0x4 PUSH2 0x266 JUMP JUMPDEST PUSH2 0xB4 JUMP JUMPDEST PUSH1 0x40 MLOAD PUSH2 0x64 SWAP2 SWAP1 PUSH2 0x76B JUMP JUMPDEST PUSH1 0x40 MLOAD DUP1 SWAP2 SUB SWAP1 RETURN JUMPDEST PUSH2 0x80 PUSH2 0x7B CALLDATASIZE PUSH1 0x4 PUSH2 0x2DD JUMP JUMPDEST PUSH2 0x104 JUMP JUMPDEST PUSH1 0x40 MLOAD PUSH2 0x64 SWAP3 SWAP2 SWAP1 PUSH2 0x7A5 JUMP JUMPDEST PUSH2 0x80 PUSH2 0x9C CALLDATASIZE PUSH1 0x4 PUSH2 0x2DD JUMP JUMPDEST PUSH2 0x15C JUMP JUMPDEST PUSH2 0x57 PUSH2 0xAF CALLDATASIZE PUSH1 0x4 PUSH2 0x266 JUMP JUMPDEST PUSH2 0x19E JUMP JUMPDEST PUSH2 0xBC PUSH2 0x1DD JUMP JUMPDEST PUSH32 0x1F5648A9029845C4761CFCC20C17A2C7A315464D6E0F57F3FB108820F2DDC195 DUP7 DUP7 DUP7 DUP7 DUP7 PUSH1 0x40 MLOAD PUSH2 0xF3 SWAP6 SWAP5 SWAP4 SWAP3 SWAP2 SWAP1 PUSH2 0x65E JUMP JUMPDEST PUSH1 0x40 MLOAD DUP1 SWAP2 SUB SWAP1 LOG1 SWAP6 SWAP5 POP POP POP POP POP JUMP JUMPDEST PUSH1 0x0 DUP1 PUSH32 0xA95DD736CFB842736454CA3F7FDB742278CEFD9F879ED528E920927BE71D59C3 DUP12 DUP12 DUP12 DUP12 DUP12 DUP12 DUP12 DUP12 DUP12 PUSH1 0x40 MLOAD PUSH2 0x146 SWAP10 SWAP9 SWAP8 SWAP7 SWAP6 SWAP5 SWAP4 SWAP3 SWAP2 SWAP1 PUSH2 0x697 JUMP JUMPDEST PUSH1 0x40 MLOAD DUP1 SWAP2 SUB SWAP1 LOG1 SWAP10 POP SWAP10 SWAP8 POP POP POP POP POP POP POP POP JUMP JUMPDEST PUSH1 0x0 DUP1 PUSH32 0xAF5574ADF8130F111F97C1E4F8626F0B1C3522635819536C6D162FA7E5EC3C6A DUP12 DUP12 DUP12 DUP12 DUP12 DUP12 DUP12 DUP12 DUP12 PUSH1 0x40 MLOAD PUSH2 0x146 SWAP10 SWAP9 SWAP8 SWAP7 SWAP6 SWAP5 SWAP4 SWAP3 SWAP2 SWAP1 PUSH2 0x697 JUMP JUMPDEST PUSH2 0x1A6 PUSH2 0x1DD JUMP JUMPDEST PUSH32 0xFFCFCAFC74A2E0B9EEECB2440E1CA5E16B51B1E5E57C00C947291426E694F4B0 DUP7 DUP7 DUP7 DUP7 DUP7 PUSH1 0x40 MLOAD PUSH2 0xF3 SWAP6 SWAP5 SWAP4 SWAP3 SWAP2 SWAP1 PUSH2 0x65E JUMP JUMPDEST PUSH1 0x40 MLOAD DUP1 PUSH1 0xA0 ADD PUSH1 0x40 MSTORE DUP1 PUSH1 0x0 DUP2 MSTORE PUSH1 0x20 ADD PUSH1 0x0 DUP2 MSTORE PUSH1 0x20 ADD PUSH1 0x0 DUP2 MSTORE PUSH1 0x20 ADD PUSH1 0x0 DUP2 MSTORE PUSH1 0x20 ADD PUSH1 0x0 DUP2 MSTORE POP SWAP1 JUMP JUMPDEST DUP1 CALLDATALOAD PUSH2 0x217 DUP2 PUSH2 0x833 JUMP JUMPDEST SWAP3 SWAP2 POP POP JUMP JUMPDEST PUSH1 0x0 DUP1 DUP4 PUSH1 0x1F DUP5 ADD SLT PUSH2 0x22E JUMPI DUP2 DUP3 REVERT JUMPDEST POP DUP2 CALLDATALOAD PUSH8 0xFFFFFFFFFFFFFFFF DUP2 GT ISZERO PUSH2 0x245 JUMPI DUP2 DUP3 REVERT JUMPDEST PUSH1 0x20 DUP4 ADD SWAP2 POP DUP4 PUSH1 0x20 DUP1 DUP4 MUL DUP6 ADD ADD GT ISZERO PUSH2 0x25F JUMPI PUSH1 0x0 DUP1 REVERT JUMPDEST SWAP3 POP SWAP3 SWAP1 POP JUMP JUMPDEST PUSH1 0x0 DUP1 PUSH1 0x0 DUP1 PUSH1 0x0 PUSH1 0x60 DUP7 DUP9 SUB SLT ISZERO PUSH2 0x27D JUMPI DUP1 DUP2 REVERT JUMPDEST DUP6 CALLDATALOAD PUSH8 0xFFFFFFFFFFFFFFFF DUP1 DUP3 GT ISZERO PUSH2 0x294 JUMPI DUP3 DUP4 REVERT JUMPDEST PUSH2 0x2A0 DUP10 DUP4 DUP11 ADD PUSH2 0x21D JUMP JUMPDEST SWAP1 SWAP8 POP SWAP6 POP PUSH1 0x20 DUP9 ADD CALLDATALOAD SWAP5 POP PUSH1 0x40 DUP9 ADD CALLDATALOAD SWAP2 POP DUP1 DUP3 GT ISZERO PUSH2 0x2BF JUMPI DUP3 DUP4 REVERT JUMPDEST POP PUSH2 0x2CC DUP9 DUP3 DUP10 ADD PUSH2 0x21D JUMP JUMPDEST SWAP7 SWAP10 SWAP6 SWAP9 POP SWAP4 SWAP7 POP SWAP3 SWAP5 SWAP4 SWAP3 POP POP POP JUMP JUMPDEST PUSH1 0x0 DUP1 PUSH1 0x0 DUP1 PUSH1 0x0 DUP1 PUSH1 0x0 DUP1 PUSH1 0x0 PUSH1 0xA0 DUP11 DUP13 SUB SLT ISZERO PUSH2 0x2FA JUMPI DUP4 DUP5 REVERT JUMPDEST DUP10 CALLDATALOAD PUSH8 0xFFFFFFFFFFFFFFFF DUP1 DUP3 GT ISZERO PUSH2 0x311 JUMPI DUP6 DUP7 REVERT JUMPDEST PUSH2 0x31D DUP14 DUP4 DUP15 ADD PUSH2 0x21D JUMP JUMPDEST SWAP1 SWAP12 POP SWAP10 POP PUSH1 0x20 DUP13 ADD CALLDATALOAD SWAP9 POP PUSH1 0x40 DUP13 ADD CALLDATALOAD SWAP2 POP DUP1 DUP3 GT ISZERO PUSH2 0x33C JUMPI DUP6 DUP7 REVERT JUMPDEST PUSH2 0x348 DUP14 DUP4 DUP15 ADD PUSH2 0x21D JUMP JUMPDEST SWAP1 SWAP9 POP SWAP7 POP PUSH1 0x60 DUP13 ADD CALLDATALOAD SWAP2 POP DUP1 DUP3 GT ISZERO PUSH2 0x360 JUMPI DUP6 DUP7 REVERT JUMPDEST PUSH2 0x36C DUP14 DUP4 DUP15 ADD PUSH2 0x21D JUMP JUMPDEST SWAP1 SWAP7 POP SWAP5 POP PUSH1 0x80 DUP13 ADD CALLDATALOAD SWAP2 POP DUP1 DUP3 GT ISZERO PUSH2 0x384 JUMPI DUP4 DUP5 REVERT JUMPDEST POP PUSH2 0x391 DUP13 DUP3 DUP14 ADD PUSH2 0x21D JUMP JUMPDEST DUP2 SWAP5 POP DUP1 SWAP4 POP POP POP POP SWAP3 SWAP6 SWAP9 POP SWAP3 SWAP6 SWAP9 POP SWAP3 SWAP6 SWAP9 JUMP JUMPDEST PUSH20 0xFFFFFFFFFFFFFFFFFFFFFFFFFFFFFFFFFFFFFFFF AND DUP2 MSTORE PUSH1 0x20 ADD SWAP1 JUMP JUMPDEST PUSH20 0xFFFFFFFFFFFFFFFFFFFFFFFFFFFFFFFFFFFFFFFF AND SWAP1 MSTORE JUMP JUMPDEST PUSH1 0x0 DUP3 DUP5 MSTORE PUSH1 0x20 DUP5 ADD DUP1 DUP2 SWAP6 POP PUSH1 0x20 DUP6 MUL DUP2 ADD SWAP2 POP DUP4 DUP4 JUMPDEST DUP7 DUP2 LT ISZERO PUSH2 0x431 JUMPI DUP3 DUP5 SUB DUP9 MSTORE PUSH2 0x40E DUP3 DUP8 PUSH2 0x7D0 JUMP JUMPDEST PUSH2 0x419 DUP7 DUP3 DUP5 PUSH2 0x616 JUMP JUMPDEST PUSH1 0x20 SWAP11 DUP12 ADD SWAP11 SWAP1 SWAP7 POP SWAP4 SWAP1 SWAP4 ADD SWAP3 POP POP PUSH1 0x1 ADD PUSH2 0x3F7 JUMP JUMPDEST POP SWAP2 SWAP7 SWAP6 POP POP POP POP POP POP JUMP JUMPDEST DUP2 DUP4 MSTORE PUSH1 0x20 DUP1 DUP5 ADD SWAP4 PUSH1 0x0 SWAP2 DUP1 DUP6 MUL DUP3 ADD DUP2 ADD DUP5 DUP5 JUMPDEST DUP8 DUP2 LT ISZERO PUSH2 0x609 JUMPI PUSH32 0xFFFFFFFFFFFFFFFFFFFFFFFFFFFFFFFFFFFFFFFFFFFFFFFFFFFFFFFFFFFFFFE0 DUP6 DUP5 SUB ADD DUP10 MSTORE DUP2 CALLDATALOAD PUSH32 0xFFFFFFFFFFFFFFFFFFFFFFFFFFFFFFFFFFFFFFFFFFFFFFFFFFFFFFFFFFFFFE41 DUP9 CALLDATASIZE SUB ADD DUP2 SLT PUSH2 0x4B3 JUMPI DUP7 DUP8 REVERT JUMPDEST PUSH2 0x1C0 SWAP1 DUP9 ADD DUP6 DUP2 ADD PUSH2 0x4CF DUP7 PUSH2 0x4CA DUP4 DUP6 PUSH2 0x20C JUMP JUMPDEST PUSH2 0x3C5 JUMP JUMPDEST PUSH2 0x4D9 DUP2 DUP4 PUSH2 0x7BC JUMP JUMPDEST PUSH2 0x4E5 DUP9 DUP9 ADD DUP3 PUSH2 0x3C5 JUMP JUMPDEST POP POP PUSH2 0x4F4 PUSH1 0x40 DUP3 ADD DUP3 PUSH2 0x7BC JUMP JUMPDEST PUSH2 0x501 PUSH1 0x40 DUP8 ADD DUP3 PUSH2 0x3C5 JUMP JUMPDEST POP PUSH2 0x50F PUSH1 0x60 DUP3 ADD DUP3 PUSH2 0x7BC JUMP JUMPDEST PUSH2 0x51C PUSH1 0x60 DUP8 ADD DUP3 PUSH2 0x3C5 JUMP JUMPDEST POP PUSH1 0x80 DUP2 ADD CALLDATALOAD PUSH1 0x80 DUP7 ADD MSTORE PUSH1 0xA0 DUP2 ADD CALLDATALOAD PUSH1 0xA0 DUP7 ADD MSTORE PUSH1 0xC0 DUP2 ADD CALLDATALOAD PUSH1 0xC0 DUP7 ADD MSTORE PUSH1 0xE0 DUP2 ADD CALLDATALOAD PUSH1 0xE0 DUP7 ADD MSTORE PUSH2 0x100 DUP1 DUP3 ADD CALLDATALOAD DUP2 DUP8 ADD MSTORE POP PUSH2 0x120 DUP1 DUP3 ADD CALLDATALOAD DUP2 DUP8 ADD MSTORE POP PUSH2 0x140 PUSH2 0x56C DUP2 DUP4 ADD DUP4 PUSH2 0x7D0 JUMP JUMPDEST DUP5 DUP4 DUP10 ADD MSTORE PUSH2 0x57E DUP6 DUP10 ADD DUP3 DUP5 PUSH2 0x616 JUMP JUMPDEST SWAP3 POP POP POP PUSH2 0x160 SWAP3 POP PUSH2 0x593 DUP4 DUP4 ADD DUP4 PUSH2 0x7D0 JUMP JUMPDEST DUP8 DUP4 SUB DUP6 DUP10 ADD MSTORE PUSH2 0x5A5 DUP4 DUP3 DUP5 PUSH2 0x616 JUMP JUMPDEST SWAP5 POP POP POP POP PUSH2 0x180 PUSH2 0x5B9 DUP2 DUP4 ADD DUP4 PUSH2 0x7D0 JUMP JUMPDEST DUP8 DUP6 SUB DUP4 DUP10 ADD MSTORE PUSH2 0x5CB DUP6 DUP3 DUP5 PUSH2 0x616 JUMP JUMPDEST SWAP3 POP POP POP PUSH2 0x1A0 SWAP3 POP PUSH2 0x5E0 DUP4 DUP4 ADD DUP4 PUSH2 0x7D0 JUMP JUMPDEST DUP8 DUP4 SUB DUP6 DUP10 ADD MSTORE PUSH2 0x5F2 DUP4 DUP3 DUP5 PUSH2 0x616 JUMP JUMPDEST SWAP14 DUP10 ADD SWAP14 SWAP8 POP POP POP SWAP4 DUP7 ADD SWAP4 POP POP POP PUSH1 0x1 ADD PUSH2 0x453 JUMP JUMPDEST POP SWAP1 SWAP8 SWAP7 POP POP POP POP POP POP POP JUMP JUMPDEST PUSH1 0x0 DUP3 DUP5 MSTORE DUP3 DUP3 PUSH1 0x20 DUP7 ADD CALLDATACOPY DUP1 PUSH1 0x20 DUP5 DUP7 ADD ADD MSTORE PUSH1 0x20 PUSH32 0xFFFFFFFFFFFFFFFFFFFFFFFFFFFFFFFFFFFFFFFFFFFFFFFFFFFFFFFFFFFFFFE0 PUSH1 0x1F DUP6 ADD AND DUP6 ADD ADD SWAP1 POP SWAP4 SWAP3 POP POP POP JUMP JUMPDEST PUSH1 0x0 PUSH1 0x60 DUP3 MSTORE PUSH2 0x672 PUSH1 0x60 DUP4 ADD DUP8 DUP10 PUSH2 0x43D JUMP JUMPDEST DUP6 PUSH1 0x20 DUP5 ADD MSTORE DUP3 DUP2 SUB PUSH1 0x40 DUP5 ADD MSTORE PUSH2 0x68B DUP2 DUP6 DUP8 PUSH2 0x3DF JUMP JUMPDEST SWAP9 SWAP8 POP POP POP POP POP POP POP POP JUMP JUMPDEST PUSH1 0x0 PUSH1 0xA0 DUP3 MSTORE PUSH2 0x6AB PUSH1 0xA0 DUP4 ADD DUP12 DUP14 PUSH2 0x43D JUMP JUMPDEST PUSH1 0x20 DUP11 DUP2 DUP6 ADD MSTORE DUP4 DUP3 SUB PUSH1 0x40 DUP6 ADD MSTORE PUSH2 0x6C5 DUP3 DUP11 DUP13 PUSH2 0x3DF JUMP JUMPDEST DUP5 DUP2 SUB PUSH1 0x60 DUP7 ADD MSTORE DUP8 DUP2 MSTORE PUSH32 0x7FFFFFFFFFFFFFFFFFFFFFFFFFFFFFFFFFFFFFFFFFFFFFFFFFFFFFFFFFFFFFF DUP9 GT ISZERO PUSH2 0x6FC JUMPI DUP4 DUP5 REVERT JUMPDEST DUP2 DUP9 MUL SWAP3 POP DUP3 DUP10 DUP4 DUP4 ADD CALLDATACOPY SWAP1 SWAP2 ADD DUP2 DUP2 ADD DUP4 DUP2 MSTORE SWAP1 DUP5 SWAP1 SUB DUP3 ADD PUSH1 0x80 DUP6 ADD MSTORE SWAP1 DUP2 PUSH2 0x727 DUP7 DUP3 PUSH2 0x7B3 JUMP JUMPDEST SWAP1 POP DUP7 SWAP3 POP DUP4 JUMPDEST DUP7 DUP2 LT ISZERO PUSH2 0x759 JUMPI DUP3 DUP5 ADD PUSH2 0x74C DUP4 PUSH2 0x747 DUP4 DUP9 PUSH2 0x20C JUMP JUMPDEST PUSH2 0x3A7 JUMP JUMPDEST SWAP1 SWAP5 POP SWAP2 POP PUSH1 0x1 ADD PUSH2 0x72E JUMP JUMPDEST POP SWAP14 SWAP13 POP POP POP POP POP POP POP POP POP POP POP POP POP JUMP JUMPDEST PUSH1 0x0 PUSH1 0xA0 DUP3 ADD SWAP1 POP DUP3 MLOAD DUP3 MSTORE PUSH1 0x20 DUP4 ADD MLOAD PUSH1 0x20 DUP4 ADD MSTORE PUSH1 0x40 DUP4 ADD MLOAD PUSH1 0x40 DUP4 ADD MSTORE PUSH1 0x60 DUP4 ADD MLOAD PUSH1 0x60 DUP4 ADD MSTORE PUSH1 0x80 DUP4 ADD MLOAD PUSH1 0x80 DUP4 ADD MSTORE SWAP3 SWAP2 POP POP JUMP JUMPDEST SWAP2 DUP3 MSTORE PUSH1 0x20 DUP3 ADD MSTORE PUSH1 0x40 ADD SWAP1 JUMP JUMPDEST SWAP1 DUP2 MSTORE PUSH1 0x20 ADD SWAP1 JUMP JUMPDEST PUSH1 0x0 DUP3 CALLDATALOAD PUSH2 0x7C9 DUP2 PUSH2 0x833 JUMP JUMPDEST SWAP4 SWAP3 POP POP POP JUMP JUMPDEST PUSH1 0x0 DUP1 DUP4 CALLDATALOAD PUSH32 0xFFFFFFFFFFFFFFFFFFFFFFFFFFFFFFFFFFFFFFFFFFFFFFFFFFFFFFFFFFFFFFE1 DUP5 CALLDATASIZE SUB ADD DUP2 SLT PUSH2 0x804 JUMPI DUP3 DUP4 REVERT JUMPDEST DUP4 ADD PUSH1 0x20 DUP2 ADD SWAP3 POP CALLDATALOAD SWAP1 POP PUSH8 0xFFFFFFFFFFFFFFFF DUP2 GT ISZERO PUSH2 0x824 JUMPI PUSH1 0x0 DUP1 REVERT JUMPDEST DUP1 CALLDATASIZE SUB DUP4 SGT ISZERO PUSH2 0x25F JUMPI PUSH1 0x0 DUP1 REVERT JUMPDEST PUSH20 0xFFFFFFFFFFFFFFFFFFFFFFFFFFFFFFFFFFFFFFFF DUP2 AND DUP2 EQ PUSH2 0x855 JUMPI PUSH1 0x0 DUP1 REVERT JUMPDEST POP JUMP INVALID LOG3 PUSH6 0x627A7A723158 KECCAK256 0x29 SWAP12 0xC1 SWAP12 0x5C SAR PUSH17 0x5CB3EB83A4BA1CE279DF2F3D88A84D4FB8 0xB9 0xFB 0xEB SELFDESTRUCT 0xC9 EXTCODECOPY SWAP11 SMOD PUSH13 0x6578706572696D656E74616CF5 PUSH5 0x736F6C6343 STOP SDIV GT STOP BLOCKHASH "
			}
		}
	},
	"sourceTreeHashHex": "0x4d916c6843950ff7838c70e7768ec2c6bab037485fedcf5cec946ff57be3e6e0",
	"compiler": {
		"name": "solc",
		"version": "soljson-v0.5.17+commit.d19bba13.js",
		"settings": {
			"optimizer": {
				"enabled": true,
				"runs": 1000000,
				"details": {
					"yul": true,
					"deduplicate": true,
					"cse": true,
					"constantOptimizer": true
				}
			},
			"outputSelection": {
				"*": {
					"*": [
						"abi",
						"devdoc",
						"evm.bytecode.object",
						"evm.bytecode.sourceMap",
						"evm.deployedBytecode.object",
						"evm.deployedBytecode.sourceMap"
					]
				}
			},
			"evmVersion": "istanbul",
			"remappings": [
				"@0x/contracts-exchange-libs=/home/cluracan/code/adjust-0x-api-quote/node_modules/@0x/contracts-exchange-libs",
				"@0x/contracts-utils=/home/cluracan/code/adjust-0x-api-quote/node_modules/@0x/contracts-utils"
			]
		}
	},
	"chains": {}
}